{
  "_format": "hh-sol-artifact-1",
  "contractName": "WeatherApp",
  "sourceName": "contracts/WeatherApp.sol",
  "abi": [
    {
      "anonymous": false,
      "inputs": [
        {
          "indexed": false,
          "internalType": "string",
          "name": "weather",
          "type": "string"
        }
      ],
      "name": "WeatherUpdated",
      "type": "event"
    },
    {
      "inputs": [],
      "name": "currentWeather",
      "outputs": [
        {
          "internalType": "string",
          "name": "",
          "type": "string"
        }
      ],
      "stateMutability": "view",
      "type": "function"
    },
    {
      "inputs": [],
      "name": "getWeather",
      "outputs": [
        {
          "internalType": "string",
          "name": "",
          "type": "string"
        }
      ],
      "stateMutability": "view",
      "type": "function"
    },
    {
      "inputs": [
        {
          "internalType": "string",
          "name": "_weather",
          "type": "string"
        }
      ],
      "name": "updateWeather",
      "outputs": [],
      "stateMutability": "nonpayable",
      "type": "function"
    }
  ],
  "bytecode": "0x608060405234801561001057600080fd5b5061047c806100206000396000f3fe608060405234801561001057600080fd5b50600436106100415760003560e01c80631a19c57c1461004657806350c556d014610064578063955fe0a014610079575b600080fd5b61004e610081565b60405161005b91906101e8565b60405180910390f35b61007761007236600461024c565b610113565b005b61004e61015a565b606060008054610090906102fd565b80601f01602080910402602001604051908101604052809291908181526020018280546100bc906102fd565b80156101095780601f106100de57610100808354040283529160200191610109565b820191906000526020600020905b8154815290600101906020018083116100ec57829003601f168201915b5050505050905090565b600061011f8282610386565b507f1b885f9bf38e4db83d62954b49f9cc3cd5b3967e2c1d05804a07929edd214dd88160405161014f91906101e8565b60405180910390a150565b60008054610167906102fd565b80601f0160208091040260200160405190810160405280929190818152602001828054610193906102fd565b80156101e05780601f106101b5576101008083540402835291602001916101e0565b820191906000526020600020905b8154815290600101906020018083116101c357829003601f168201915b505050505081565b600060208083528351808285015260005b81811015610215578581018301518582016040015282016101f9565b506000604082860101526040601f19601f8301168501019250505092915050565b634e487b7160e01b600052604160045260246000fd5b60006020828403121561025e57600080fd5b813567ffffffffffffffff8082111561027657600080fd5b818401915084601f83011261028a57600080fd5b81358181111561029c5761029c610236565b604051601f8201601f19908116603f011681019083821181831017156102c4576102c4610236565b816040528281528760208487010111156102dd57600080fd5b826020860160208301376000928101602001929092525095945050505050565b600181811c9082168061031157607f821691505b60208210810361033157634e487b7160e01b600052602260045260246000fd5b50919050565b601f82111561038157600081815260208120601f850160051c8101602086101561035e5750805b601f850160051c820191505b8181101561037d5782815560010161036a565b5050505b505050565b815167ffffffffffffffff8111156103a0576103a0610236565b6103b4816103ae84546102fd565b84610337565b602080601f8311600181146103e957600084156103d15750858301515b600019600386901b1c1916600185901b17855561037d565b600085815260208120601f198616915b82811015610418578886015182559484019460019091019084016103f9565b50858210156104365787850151600019600388901b60f8161c191681555b5050505050600190811b0190555056fea2646970667358221220f797ef9c0bdacea7f95825482726af1215a92a3ee7b9af7a90a463e148a7eac364736f6c63430008140033",
  "linkReferences": {},
  "deployedLinkReferences": {}
}